{
  "_format": "hh-sol-artifact-1",
  "contractName": "FirNFT_Logic",
  "sourceName": "contracts/FirNFT_Logic.sol",
  "abi": [
    {
      "anonymous": false,
      "inputs": [
        {
          "indexed": true,
          "internalType": "address",
          "name": "owner",
          "type": "address"
        },
        {
          "indexed": true,
          "internalType": "address",
          "name": "approved",
          "type": "address"
        },
        {
          "indexed": true,
          "internalType": "uint256",
          "name": "tokenId",
          "type": "uint256"
        }
      ],
      "name": "Approval",
      "type": "event"
    },
    {
      "anonymous": false,
      "inputs": [
        {
          "indexed": true,
          "internalType": "address",
          "name": "owner",
          "type": "address"
        },
        {
          "indexed": true,
          "internalType": "address",
          "name": "operator",
          "type": "address"
        },
        {
          "indexed": false,
          "internalType": "bool",
          "name": "approved",
          "type": "bool"
        }
      ],
      "name": "ApprovalForAll",
      "type": "event"
    },
    {
      "anonymous": false,
      "inputs": [
        {
          "indexed": true,
          "internalType": "address",
          "name": "_to",
          "type": "address"
        },
        {
          "indexed": true,
          "internalType": "uint256",
          "name": "tokenId",
          "type": "uint256"
        }
      ],
      "name": "Attest",
      "type": "event"
    },
    {
      "anonymous": false,
      "inputs": [
        {
          "indexed": true,
          "internalType": "address",
          "name": "previousOwner",
          "type": "address"
        },
        {
          "indexed": true,
          "internalType": "address",
          "name": "newOwner",
          "type": "address"
        }
      ],
      "name": "OwnershipTransferred",
      "type": "event"
    },
    {
      "anonymous": false,
      "inputs": [
        {
          "indexed": true,
          "internalType": "address",
          "name": "_to",
          "type": "address"
        },
        {
          "indexed": true,
          "internalType": "uint256",
          "name": "tokenId",
          "type": "uint256"
        }
      ],
      "name": "Revoke",
      "type": "event"
    },
    {
      "anonymous": false,
      "inputs": [
        {
          "indexed": true,
          "internalType": "address",
          "name": "from",
          "type": "address"
        },
        {
          "indexed": true,
          "internalType": "address",
          "name": "to",
          "type": "address"
        },
        {
          "indexed": true,
          "internalType": "uint256",
          "name": "tokenId",
          "type": "uint256"
        }
      ],
      "name": "Transfer",
      "type": "event"
    },
    {
      "inputs": [
        {
          "internalType": "address",
          "name": "to",
          "type": "address"
        },
        {
          "internalType": "uint256",
          "name": "tokenId",
          "type": "uint256"
        }
      ],
      "name": "approve",
      "outputs": [],
      "stateMutability": "nonpayable",
      "type": "function"
    },
    {
      "inputs": [
        {
          "internalType": "address",
          "name": "owner",
          "type": "address"
        }
      ],
      "name": "balanceOf",
      "outputs": [
        {
          "internalType": "uint256",
          "name": "",
          "type": "uint256"
        }
      ],
      "stateMutability": "view",
      "type": "function"
    },
    {
      "inputs": [
        {
          "internalType": "uint256",
          "name": "tokenId",
          "type": "uint256"
        }
      ],
      "name": "burn",
      "outputs": [],
      "stateMutability": "nonpayable",
      "type": "function"
    },
    {
      "inputs": [
        {
          "internalType": "uint256",
          "name": "",
          "type": "uint256"
        }
      ],
      "name": "complaintNumberToComplaint",
      "outputs": [
        {
          "internalType": "uint256",
          "name": "_complaintNumber",
          "type": "uint256"
        },
        {
          "internalType": "address",
          "name": "_Officer",
          "type": "address"
        },
        {
          "internalType": "string",
          "name": "_by",
          "type": "string"
        },
        {
          "internalType": "string",
          "name": "_for",
          "type": "string"
        },
        {
          "internalType": "string",
          "name": "_description",
          "type": "string"
        },
        {
          "internalType": "uint256",
          "name": "_issuedDate",
          "type": "uint256"
        },
        {
          "internalType": "bool",
          "name": "_status",
          "type": "bool"
        }
      ],
      "stateMutability": "view",
      "type": "function"
    },
    {
      "inputs": [
        {
          "internalType": "string",
          "name": "_by",
          "type": "string"
        },
        {
          "internalType": "string",
          "name": "_for",
          "type": "string"
        },
        {
          "internalType": "string",
          "name": "_description",
          "type": "string"
        }
      ],
      "name": "createComplaint",
      "outputs": [],
      "stateMutability": "nonpayable",
      "type": "function"
    },
    {
      "inputs": [
        {
          "internalType": "uint256",
          "name": "tokenId",
          "type": "uint256"
        }
      ],
      "name": "getApproved",
      "outputs": [
        {
          "internalType": "address",
          "name": "",
          "type": "address"
        }
      ],
      "stateMutability": "view",
      "type": "function"
    },
    {
      "inputs": [
        {
          "internalType": "uint256",
          "name": "",
          "type": "uint256"
        }
      ],
      "name": "idToTokenUri",
      "outputs": [
        {
          "internalType": "string",
          "name": "",
          "type": "string"
        }
      ],
      "stateMutability": "view",
      "type": "function"
    },
    {
      "inputs": [
        {
          "internalType": "address",
          "name": "owner",
          "type": "address"
        },
        {
          "internalType": "address",
          "name": "operator",
          "type": "address"
        }
      ],
      "name": "isApprovedForAll",
      "outputs": [
        {
          "internalType": "bool",
          "name": "",
          "type": "bool"
        }
      ],
      "stateMutability": "view",
      "type": "function"
    },
    {
      "inputs": [],
      "name": "name",
      "outputs": [
        {
          "internalType": "string",
          "name": "",
          "type": "string"
        }
      ],
      "stateMutability": "view",
      "type": "function"
    },
    {
      "inputs": [],
      "name": "owner",
      "outputs": [
        {
          "internalType": "address",
          "name": "",
          "type": "address"
        }
      ],
      "stateMutability": "view",
      "type": "function"
    },
    {
      "inputs": [
        {
          "internalType": "uint256",
          "name": "tokenId",
          "type": "uint256"
        }
      ],
      "name": "ownerOf",
      "outputs": [
        {
          "internalType": "address",
          "name": "",
          "type": "address"
        }
      ],
      "stateMutability": "view",
      "type": "function"
    },
    {
      "inputs": [],
      "name": "renounceOwnership",
      "outputs": [],
      "stateMutability": "nonpayable",
      "type": "function"
    },
    {
      "inputs": [
        {
          "internalType": "address",
          "name": "to",
          "type": "address"
        },
        {
          "internalType": "string",
          "name": "uri",
          "type": "string"
        }
      ],
      "name": "safeMint",
      "outputs": [],
      "stateMutability": "nonpayable",
      "type": "function"
    },
    {
      "inputs": [
        {
          "internalType": "address",
          "name": "from",
          "type": "address"
        },
        {
          "internalType": "address",
          "name": "to",
          "type": "address"
        },
        {
          "internalType": "uint256",
          "name": "tokenId",
          "type": "uint256"
        }
      ],
      "name": "safeTransferFrom",
      "outputs": [],
      "stateMutability": "nonpayable",
      "type": "function"
    },
    {
      "inputs": [
        {
          "internalType": "address",
          "name": "from",
          "type": "address"
        },
        {
          "internalType": "address",
          "name": "to",
          "type": "address"
        },
        {
          "internalType": "uint256",
          "name": "tokenId",
          "type": "uint256"
        },
        {
          "internalType": "bytes",
          "name": "data",
          "type": "bytes"
        }
      ],
      "name": "safeTransferFrom",
      "outputs": [],
      "stateMutability": "nonpayable",
      "type": "function"
    },
    {
      "inputs": [
        {
          "internalType": "address",
          "name": "operator",
          "type": "address"
        },
        {
          "internalType": "bool",
          "name": "approved",
          "type": "bool"
        }
      ],
      "name": "setApprovalForAll",
      "outputs": [],
      "stateMutability": "nonpayable",
      "type": "function"
    },
    {
      "inputs": [
        {
          "internalType": "uint256",
          "name": "_numberOfTheComplaint",
          "type": "uint256"
        }
      ],
      "name": "statusOfMyComplaint",
      "outputs": [
        {
          "internalType": "bool",
          "name": "",
          "type": "bool"
        }
      ],
      "stateMutability": "view",
      "type": "function"
    },
    {
      "inputs": [
        {
          "internalType": "bytes4",
          "name": "interfaceId",
          "type": "bytes4"
        }
      ],
      "name": "supportsInterface",
      "outputs": [
        {
          "internalType": "bool",
          "name": "",
          "type": "bool"
        }
      ],
      "stateMutability": "view",
      "type": "function"
    },
    {
      "inputs": [],
      "name": "symbol",
      "outputs": [
        {
          "internalType": "string",
          "name": "",
          "type": "string"
        }
      ],
      "stateMutability": "view",
      "type": "function"
    },
    {
      "inputs": [],
      "name": "tokenIDs",
      "outputs": [
        {
          "internalType": "uint256",
          "name": "_value",
          "type": "uint256"
        }
      ],
      "stateMutability": "view",
      "type": "function"
    },
    {
      "inputs": [
        {
          "internalType": "uint256",
          "name": "tokenId",
          "type": "uint256"
        }
      ],
      "name": "tokenURI",
      "outputs": [
        {
          "internalType": "string",
          "name": "",
          "type": "string"
        }
      ],
      "stateMutability": "view",
      "type": "function"
    },
    {
      "inputs": [],
      "name": "totalComplaints",
      "outputs": [
        {
          "internalType": "uint256",
          "name": "_value",
          "type": "uint256"
        }
      ],
      "stateMutability": "view",
      "type": "function"
    },
    {
      "inputs": [
        {
          "internalType": "address",
          "name": "from",
          "type": "address"
        },
        {
          "internalType": "address",
          "name": "to",
          "type": "address"
        },
        {
          "internalType": "uint256",
          "name": "tokenId",
          "type": "uint256"
        }
      ],
      "name": "transferFrom",
      "outputs": [],
      "stateMutability": "nonpayable",
      "type": "function"
    },
    {
      "inputs": [
        {
          "internalType": "address",
          "name": "newOwner",
          "type": "address"
        }
      ],
      "name": "transferOwnership",
      "outputs": [],
      "stateMutability": "nonpayable",
      "type": "function"
    }
  ],
  "bytecode": "0x60806040523480156200001157600080fd5b506040518060400160405280600881526020017f43657274694e46540000000000000000000000000000000000000000000000008152506040518060400160405280600481526020017f434e465400000000000000000000000000000000000000000000000000000000815250816000908051906020019062000096929190620001a6565b508060019080519060200190620000af929190620001a6565b505050620000d2620000c6620000d860201b60201c565b620000e060201b60201c565b620002bb565b600033905090565b6000600660009054906101000a900473ffffffffffffffffffffffffffffffffffffffff16905081600660006101000a81548173ffffffffffffffffffffffffffffffffffffffff021916908373ffffffffffffffffffffffffffffffffffffffff1602179055508173ffffffffffffffffffffffffffffffffffffffff168173ffffffffffffffffffffffffffffffffffffffff167f8be0079c531659141344cd1fd0a4f28419497f9722a3daafe3b4186f6b6457e060405160405180910390a35050565b828054620001b49062000285565b90600052602060002090601f016020900481019282620001d8576000855562000224565b82601f10620001f357805160ff191683800117855562000224565b8280016001018555821562000224579182015b828111156200022357825182559160200191906001019062000206565b5b50905062000233919062000237565b5090565b5b808211156200025257600081600090555060010162000238565b5090565b7f4e487b7100000000000000000000000000000000000000000000000000000000600052602260045260246000fd5b600060028204905060018216806200029e57607f821691505b60208210811415620002b557620002b462000256565b5b50919050565b61348780620002cb6000396000f3fe608060405234801561001057600080fd5b50600436106101585760003560e01c80638da5cb5b116100c3578063c87b56dd1161007c578063c87b56dd146103b1578063d204c45e146103e1578063dec0dfa6146103fd578063df81fd7914610433578063e985e9c514610463578063f2fde38b1461049357610158565b80638da5cb5b1461030157806395d89b411461031f578063a22cb4651461033d578063a886b39814610359578063aeffe13414610377578063b88d4fde1461039557610158565b806342842e0e1161011557806342842e0e1461022f57806342966c681461024b5780634efb891f146102675780636352211e1461029757806370a08231146102c7578063715018a6146102f757610158565b806301ffc9a71461015d57806306fdde031461018d578063081812fc146101ab578063095ea7b3146101db5780630da3f37e146101f757806323b872dd14610213575b600080fd5b61017760048036038101906101729190612377565b6104af565b60405161018491906123bf565b60405180910390f35b610195610591565b6040516101a29190612473565b60405180910390f35b6101c560048036038101906101c091906124cb565b610623565b6040516101d29190612539565b60405180910390f35b6101f560048036038101906101f09190612580565b610669565b005b610211600480360381019061020c9190612625565b610781565b005b61022d600480360381019061022891906126d9565b6109a5565b005b610249600480360381019061024491906126d9565b610a05565b005b610265600480360381019061026091906124cb565b610a25565b005b610281600480360381019061027c91906124cb565b610aa7565b60405161028e9190612473565b60405180910390f35b6102b160048036038101906102ac91906124cb565b610b47565b6040516102be9190612539565b60405180910390f35b6102e160048036038101906102dc919061272c565b610bce565b6040516102ee9190612768565b60405180910390f35b6102ff610c86565b005b610309610c9a565b6040516103169190612539565b60405180910390f35b610327610cc4565b6040516103349190612473565b60405180910390f35b610357600480360381019061035291906127af565b610d56565b005b610361610d6c565b60405161036e9190612768565b60405180910390f35b61037f610d78565b60405161038c9190612768565b60405180910390f35b6103af60048036038101906103aa919061291f565b610d84565b005b6103cb60048036038101906103c691906124cb565b610de6565b6040516103d89190612473565b60405180910390f35b6103fb60048036038101906103f69190612a43565b610e8b565b005b610417600480360381019061041291906124cb565b610ec4565b60405161042a9796959493929190612a9f565b60405180910390f35b61044d600480360381019061044891906124cb565b6110cb565b60405161045a91906123bf565b60405180910390f35b61047d60048036038101906104789190612b23565b6110f8565b60405161048a91906123bf565b60405180910390f35b6104ad60048036038101906104a8919061272c565b61118c565b005b60007f80ac58cd000000000000000000000000000000000000000000000000000000007bffffffffffffffffffffffffffffffffffffffffffffffffffffffff1916827bffffffffffffffffffffffffffffffffffffffffffffffffffffffff1916148061057a57507f5b5e139f000000000000000000000000000000000000000000000000000000007bffffffffffffffffffffffffffffffffffffffffffffffffffffffff1916827bffffffffffffffffffffffffffffffffffffffffffffffffffffffff1916145b8061058a575061058982611210565b5b9050919050565b6060600080546105a090612b92565b80601f01602080910402602001604051908101604052809291908181526020018280546105cc90612b92565b80156106195780601f106105ee57610100808354040283529160200191610619565b820191906000526020600020905b8154815290600101906020018083116105fc57829003601f168201915b5050505050905090565b600061062e8261127a565b6004600083815260200190815260200160002060009054906101000a900473ffffffffffffffffffffffffffffffffffffffff169050919050565b600061067482610b47565b90508073ffffffffffffffffffffffffffffffffffffffff168373ffffffffffffffffffffffffffffffffffffffff1614156106e5576040517f08c379a00000000000000000000000000000000000000000000000000000000081526004016106dc90612c36565b60405180910390fd5b8073ffffffffffffffffffffffffffffffffffffffff166107046112c5565b73ffffffffffffffffffffffffffffffffffffffff16148061073357506107328161072d6112c5565b6110f8565b5b610772576040517f08c379a000000000000000000000000000000000000000000000000000000000815260040161076990612cc8565b60405180910390fd5b61077c83836112cd565b505050565b6040518060e00160405280610796600a611386565b81526020013373ffffffffffffffffffffffffffffffffffffffff16815260200187878080601f016020809104026020016040519081016040528093929190818152602001838380828437600081840152601f19601f82011690508083019250505050505050815260200185858080601f016020809104026020016040519081016040528093929190818152602001838380828437600081840152601f19601f82011690508083019250505050505050815260200183838080601f016020809104026020016040519081016040528093929190818152602001838380828437600081840152601f19601f82011690508083019250505050505050815260200142815260200160001515815250600b60006108b0600a611386565b81526020019081526020016000206000820151816000015560208201518160010160006101000a81548173ffffffffffffffffffffffffffffffffffffffff021916908373ffffffffffffffffffffffffffffffffffffffff160217905550604082015181600201908051906020019061092b929190612228565b506060820151816003019080519060200190610948929190612228565b506080820151816004019080519060200190610965929190612228565b5060a0820151816005015560c08201518160060160006101000a81548160ff02191690831515021790555090505061099d600a611394565b505050505050565b6109b66109b06112c5565b826113aa565b6109f5576040517f08c379a00000000000000000000000000000000000000000000000000000000081526004016109ec90612d5a565b60405180910390fd5b610a0083838361143f565b505050565b610a2083838360405180602001604052806000815250610d84565b505050565b3373ffffffffffffffffffffffffffffffffffffffff16610a4582610b47565b73ffffffffffffffffffffffffffffffffffffffff1614610a9b576040517f08c379a0000000000000000000000000000000000000000000000000000000008152600401610a9290612dec565b60405180910390fd5b610aa481611739565b50565b60096020528060005260406000206000915090508054610ac690612b92565b80601f0160208091040260200160405190810160405280929190818152602001828054610af290612b92565b8015610b3f5780601f10610b1457610100808354040283529160200191610b3f565b820191906000526020600020905b815481529060010190602001808311610b2257829003601f168201915b505050505081565b600080610b5383611745565b9050600073ffffffffffffffffffffffffffffffffffffffff168173ffffffffffffffffffffffffffffffffffffffff161415610bc5576040517f08c379a0000000000000000000000000000000000000000000000000000000008152600401610bbc90612e58565b60405180910390fd5b80915050919050565b60008073ffffffffffffffffffffffffffffffffffffffff168273ffffffffffffffffffffffffffffffffffffffff161415610c3f576040517f08c379a0000000000000000000000000000000000000000000000000000000008152600401610c3690612eea565b60405180910390fd5b600360008373ffffffffffffffffffffffffffffffffffffffff1673ffffffffffffffffffffffffffffffffffffffff168152602001908152602001600020549050919050565b610c8e611782565b610c986000611800565b565b6000600660009054906101000a900473ffffffffffffffffffffffffffffffffffffffff16905090565b606060018054610cd390612b92565b80601f0160208091040260200160405190810160405280929190818152602001828054610cff90612b92565b8015610d4c5780601f10610d2157610100808354040283529160200191610d4c565b820191906000526020600020905b815481529060010190602001808311610d2f57829003601f168201915b5050505050905090565b610d68610d616112c5565b83836118c6565b5050565b600a8060000154905081565b60088060000154905081565b610d95610d8f6112c5565b836113aa565b610dd4576040517f08c379a0000000000000000000000000000000000000000000000000000000008152600401610dcb90612d5a565b60405180910390fd5b610de084848484611a33565b50505050565b6060600960008381526020019081526020016000208054610e0690612b92565b80601f0160208091040260200160405190810160405280929190818152602001828054610e3290612b92565b8015610e7f5780601f10610e5457610100808354040283529160200191610e7f565b820191906000526020600020905b815481529060010190602001808311610e6257829003601f168201915b50505050509050919050565b610e93611782565b6000610e9f6008611386565b9050610eab6008611394565b610eb58382611a8f565b610ebf8183611aad565b505050565b600b6020528060005260406000206000915090508060000154908060010160009054906101000a900473ffffffffffffffffffffffffffffffffffffffff1690806002018054610f1390612b92565b80601f0160208091040260200160405190810160405280929190818152602001828054610f3f90612b92565b8015610f8c5780601f10610f6157610100808354040283529160200191610f8c565b820191906000526020600020905b815481529060010190602001808311610f6f57829003601f168201915b505050505090806003018054610fa190612b92565b80601f0160208091040260200160405190810160405280929190818152602001828054610fcd90612b92565b801561101a5780601f10610fef5761010080835404028352916020019161101a565b820191906000526020600020905b815481529060010190602001808311610ffd57829003601f168201915b50505050509080600401805461102f90612b92565b80601f016020809104026020016040519081016040528092919081815260200182805461105b90612b92565b80156110a85780601f1061107d576101008083540402835291602001916110a8565b820191906000526020600020905b81548152906001019060200180831161108b57829003601f168201915b5050505050908060050154908060060160009054906101000a900460ff16905087565b6000600b600083815260200190815260200160002060060160009054906101000a900460ff169050919050565b6000600560008473ffffffffffffffffffffffffffffffffffffffff1673ffffffffffffffffffffffffffffffffffffffff16815260200190815260200160002060008373ffffffffffffffffffffffffffffffffffffffff1673ffffffffffffffffffffffffffffffffffffffff16815260200190815260200160002060009054906101000a900460ff16905092915050565b611194611782565b600073ffffffffffffffffffffffffffffffffffffffff168173ffffffffffffffffffffffffffffffffffffffff161415611204576040517f08c379a00000000000000000000000000000000000000000000000000000000081526004016111fb90612f7c565b60405180910390fd5b61120d81611800565b50565b60007f01ffc9a7000000000000000000000000000000000000000000000000000000007bffffffffffffffffffffffffffffffffffffffffffffffffffffffff1916827bffffffffffffffffffffffffffffffffffffffffffffffffffffffff1916149050919050565b61128381611ad9565b6112c2576040517f08c379a00000000000000000000000000000000000000000000000000000000081526004016112b990612e58565b60405180910390fd5b50565b600033905090565b816004600083815260200190815260200160002060006101000a81548173ffffffffffffffffffffffffffffffffffffffff021916908373ffffffffffffffffffffffffffffffffffffffff160217905550808273ffffffffffffffffffffffffffffffffffffffff1661134083610b47565b73ffffffffffffffffffffffffffffffffffffffff167f8c5be1e5ebec7d5bd14f71427d1e84f3dd0314c0f7b2291e5b200ac8c7c3b92560405160405180910390a45050565b600081600001549050919050565b6001816000016000828254019250508190555050565b6000806113b683610b47565b90508073ffffffffffffffffffffffffffffffffffffffff168473ffffffffffffffffffffffffffffffffffffffff1614806113f857506113f781856110f8565b5b8061143657508373ffffffffffffffffffffffffffffffffffffffff1661141e84610623565b73ffffffffffffffffffffffffffffffffffffffff16145b91505092915050565b8273ffffffffffffffffffffffffffffffffffffffff1661145f82610b47565b73ffffffffffffffffffffffffffffffffffffffff16146114b5576040517f08c379a00000000000000000000000000000000000000000000000000000000081526004016114ac9061300e565b60405180910390fd5b600073ffffffffffffffffffffffffffffffffffffffff168273ffffffffffffffffffffffffffffffffffffffff161415611525576040517f08c379a000000000000000000000000000000000000000000000000000000000815260040161151c906130a0565b60405180910390fd5b6115328383836001611b1a565b8273ffffffffffffffffffffffffffffffffffffffff1661155282610b47565b73ffffffffffffffffffffffffffffffffffffffff16146115a8576040517f08c379a000000000000000000000000000000000000000000000000000000000815260040161159f9061300e565b60405180910390fd5b6004600082815260200190815260200160002060006101000a81549073ffffffffffffffffffffffffffffffffffffffff02191690556001600360008573ffffffffffffffffffffffffffffffffffffffff1673ffffffffffffffffffffffffffffffffffffffff168152602001908152602001600020600082825403925050819055506001600360008473ffffffffffffffffffffffffffffffffffffffff1673ffffffffffffffffffffffffffffffffffffffff16815260200190815260200160002060008282540192505081905550816002600083815260200190815260200160002060006101000a81548173ffffffffffffffffffffffffffffffffffffffff021916908373ffffffffffffffffffffffffffffffffffffffff160217905550808273ffffffffffffffffffffffffffffffffffffffff168473ffffffffffffffffffffffffffffffffffffffff167fddf252ad1be2c89b69c2b068fc378daa952ba7f163c4a11628f55a4df523b3ef60405160405180910390a46117348383836001611bc6565b505050565b61174281611c54565b50565b60006002600083815260200190815260200160002060009054906101000a900473ffffffffffffffffffffffffffffffffffffffff169050919050565b61178a6112c5565b73ffffffffffffffffffffffffffffffffffffffff166117a8610c9a565b73ffffffffffffffffffffffffffffffffffffffff16146117fe576040517f08c379a00000000000000000000000000000000000000000000000000000000081526004016117f59061310c565b60405180910390fd5b565b6000600660009054906101000a900473ffffffffffffffffffffffffffffffffffffffff16905081600660006101000a81548173ffffffffffffffffffffffffffffffffffffffff021916908373ffffffffffffffffffffffffffffffffffffffff1602179055508173ffffffffffffffffffffffffffffffffffffffff168173ffffffffffffffffffffffffffffffffffffffff167f8be0079c531659141344cd1fd0a4f28419497f9722a3daafe3b4186f6b6457e060405160405180910390a35050565b8173ffffffffffffffffffffffffffffffffffffffff168373ffffffffffffffffffffffffffffffffffffffff161415611935576040517f08c379a000000000000000000000000000000000000000000000000000000000815260040161192c90613178565b60405180910390fd5b80600560008573ffffffffffffffffffffffffffffffffffffffff1673ffffffffffffffffffffffffffffffffffffffff16815260200190815260200160002060008473ffffffffffffffffffffffffffffffffffffffff1673ffffffffffffffffffffffffffffffffffffffff16815260200190815260200160002060006101000a81548160ff0219169083151502179055508173ffffffffffffffffffffffffffffffffffffffff168373ffffffffffffffffffffffffffffffffffffffff167f17307eab39ab6107e8899845ad3d59bd9653f200f220920489ca2b5937696c3183604051611a2691906123bf565b60405180910390a3505050565b611a3e84848461143f565b611a4a84848484611ca7565b611a89576040517f08c379a0000000000000000000000000000000000000000000000000000000008152600401611a809061320a565b60405180910390fd5b50505050565b611aa9828260405180602001604052806000815250611e3e565b5050565b80600960008481526020019081526020016000209080519060200190611ad4929190612228565b505050565b60008073ffffffffffffffffffffffffffffffffffffffff16611afb83611745565b73ffffffffffffffffffffffffffffffffffffffff1614159050919050565b600073ffffffffffffffffffffffffffffffffffffffff168473ffffffffffffffffffffffffffffffffffffffff161480611b815750600073ffffffffffffffffffffffffffffffffffffffff168373ffffffffffffffffffffffffffffffffffffffff16145b611bc0576040517f08c379a0000000000000000000000000000000000000000000000000000000008152600401611bb790613276565b60405180910390fd5b50505050565b818373ffffffffffffffffffffffffffffffffffffffff167fe9274a84b19e9428826de6bae8c48329354f8f0e73f771b97cae2d9dccd45a2760405160405180910390a3818373ffffffffffffffffffffffffffffffffffffffff167fec9ab91322523c899ede7830ec9bfc992b5981cdcc27b91162fb23de5791117b60405160405180910390a350505050565b611c5d81611e99565b6000600760008381526020019081526020016000208054611c7d90612b92565b905014611ca457600760008281526020019081526020016000206000611ca391906122ae565b5b50565b6000611cc88473ffffffffffffffffffffffffffffffffffffffff16611fe7565b15611e31578373ffffffffffffffffffffffffffffffffffffffff1663150b7a02611cf16112c5565b8786866040518563ffffffff1660e01b8152600401611d1394939291906132eb565b602060405180830381600087803b158015611d2d57600080fd5b505af1925050508015611d5e57506040513d601f19601f82011682018060405250810190611d5b919061334c565b60015b611de1573d8060008114611d8e576040519150601f19603f3d011682016040523d82523d6000602084013e611d93565b606091505b50600081511415611dd9576040517f08c379a0000000000000000000000000000000000000000000000000000000008152600401611dd09061320a565b60405180910390fd5b805181602001fd5b63150b7a0260e01b7bffffffffffffffffffffffffffffffffffffffffffffffffffffffff1916817bffffffffffffffffffffffffffffffffffffffffffffffffffffffff191614915050611e36565b600190505b949350505050565b611e48838361200a565b611e556000848484611ca7565b611e94576040517f08c379a0000000000000000000000000000000000000000000000000000000008152600401611e8b9061320a565b60405180910390fd5b505050565b6000611ea482610b47565b9050611eb4816000846001611b1a565b611ebd82610b47565b90506004600083815260200190815260200160002060006101000a81549073ffffffffffffffffffffffffffffffffffffffff02191690556001600360008373ffffffffffffffffffffffffffffffffffffffff1673ffffffffffffffffffffffffffffffffffffffff168152602001908152602001600020600082825403925050819055506002600083815260200190815260200160002060006101000a81549073ffffffffffffffffffffffffffffffffffffffff021916905581600073ffffffffffffffffffffffffffffffffffffffff168273ffffffffffffffffffffffffffffffffffffffff167fddf252ad1be2c89b69c2b068fc378daa952ba7f163c4a11628f55a4df523b3ef60405160405180910390a4611fe3816000846001611bc6565b5050565b6000808273ffffffffffffffffffffffffffffffffffffffff163b119050919050565b600073ffffffffffffffffffffffffffffffffffffffff168273ffffffffffffffffffffffffffffffffffffffff16141561207a576040517f08c379a0000000000000000000000000000000000000000000000000000000008152600401612071906133c5565b60405180910390fd5b61208381611ad9565b156120c3576040517f08c379a00000000000000000000000000000000000000000000000000000000081526004016120ba90613431565b60405180910390fd5b6120d1600083836001611b1a565b6120da81611ad9565b1561211a576040517f08c379a000000000000000000000000000000000000000000000000000000000815260040161211190613431565b60405180910390fd5b6001600360008473ffffffffffffffffffffffffffffffffffffffff1673ffffffffffffffffffffffffffffffffffffffff16815260200190815260200160002060008282540192505081905550816002600083815260200190815260200160002060006101000a81548173ffffffffffffffffffffffffffffffffffffffff021916908373ffffffffffffffffffffffffffffffffffffffff160217905550808273ffffffffffffffffffffffffffffffffffffffff16600073ffffffffffffffffffffffffffffffffffffffff167fddf252ad1be2c89b69c2b068fc378daa952ba7f163c4a11628f55a4df523b3ef60405160405180910390a4612224600083836001611bc6565b5050565b82805461223490612b92565b90600052602060002090601f016020900481019282612256576000855561229d565b82601f1061226f57805160ff191683800117855561229d565b8280016001018555821561229d579182015b8281111561229c578251825591602001919060010190612281565b5b5090506122aa91906122ee565b5090565b5080546122ba90612b92565b6000825580601f106122cc57506122eb565b601f0160209004906000526020600020908101906122ea91906122ee565b5b50565b5b808211156123075760008160009055506001016122ef565b5090565b6000604051905090565b600080fd5b600080fd5b60007fffffffff0000000000000000000000000000000000000000000000000000000082169050919050565b6123548161231f565b811461235f57600080fd5b50565b6000813590506123718161234b565b92915050565b60006020828403121561238d5761238c612315565b5b600061239b84828501612362565b91505092915050565b60008115159050919050565b6123b9816123a4565b82525050565b60006020820190506123d460008301846123b0565b92915050565b600081519050919050565b600082825260208201905092915050565b60005b838110156124145780820151818401526020810190506123f9565b83811115612423576000848401525b50505050565b6000601f19601f8301169050919050565b6000612445826123da565b61244f81856123e5565b935061245f8185602086016123f6565b61246881612429565b840191505092915050565b6000602082019050818103600083015261248d818461243a565b905092915050565b6000819050919050565b6124a881612495565b81146124b357600080fd5b50565b6000813590506124c58161249f565b92915050565b6000602082840312156124e1576124e0612315565b5b60006124ef848285016124b6565b91505092915050565b600073ffffffffffffffffffffffffffffffffffffffff82169050919050565b6000612523826124f8565b9050919050565b61253381612518565b82525050565b600060208201905061254e600083018461252a565b92915050565b61255d81612518565b811461256857600080fd5b50565b60008135905061257a81612554565b92915050565b6000806040838503121561259757612596612315565b5b60006125a58582860161256b565b92505060206125b6858286016124b6565b9150509250929050565b600080fd5b600080fd5b600080fd5b60008083601f8401126125e5576125e46125c0565b5b8235905067ffffffffffffffff811115612602576126016125c5565b5b60208301915083600182028301111561261e5761261d6125ca565b5b9250929050565b6000806000806000806060878903121561264257612641612315565b5b600087013567ffffffffffffffff8111156126605761265f61231a565b5b61266c89828a016125cf565b9650965050602087013567ffffffffffffffff81111561268f5761268e61231a565b5b61269b89828a016125cf565b9450945050604087013567ffffffffffffffff8111156126be576126bd61231a565b5b6126ca89828a016125cf565b92509250509295509295509295565b6000806000606084860312156126f2576126f1612315565b5b60006127008682870161256b565b93505060206127118682870161256b565b9250506040612722868287016124b6565b9150509250925092565b60006020828403121561274257612741612315565b5b60006127508482850161256b565b91505092915050565b61276281612495565b82525050565b600060208201905061277d6000830184612759565b92915050565b61278c816123a4565b811461279757600080fd5b50565b6000813590506127a981612783565b92915050565b600080604083850312156127c6576127c5612315565b5b60006127d48582860161256b565b92505060206127e58582860161279a565b9150509250929050565b600080fd5b7f4e487b7100000000000000000000000000000000000000000000000000000000600052604160045260246000fd5b61282c82612429565b810181811067ffffffffffffffff8211171561284b5761284a6127f4565b5b80604052505050565b600061285e61230b565b905061286a8282612823565b919050565b600067ffffffffffffffff82111561288a576128896127f4565b5b61289382612429565b9050602081019050919050565b82818337600083830152505050565b60006128c26128bd8461286f565b612854565b9050828152602081018484840111156128de576128dd6127ef565b5b6128e98482856128a0565b509392505050565b600082601f830112612906576129056125c0565b5b81356129168482602086016128af565b91505092915050565b6000806000806080858703121561293957612938612315565b5b60006129478782880161256b565b94505060206129588782880161256b565b9350506040612969878288016124b6565b925050606085013567ffffffffffffffff81111561298a5761298961231a565b5b612996878288016128f1565b91505092959194509250565b600067ffffffffffffffff8211156129bd576129bc6127f4565b5b6129c682612429565b9050602081019050919050565b60006129e66129e1846129a2565b612854565b905082815260208101848484011115612a0257612a016127ef565b5b612a0d8482856128a0565b509392505050565b600082601f830112612a2a57612a296125c0565b5b8135612a3a8482602086016129d3565b91505092915050565b60008060408385031215612a5a57612a59612315565b5b6000612a688582860161256b565b925050602083013567ffffffffffffffff811115612a8957612a8861231a565b5b612a9585828601612a15565b9150509250929050565b600060e082019050612ab4600083018a612759565b612ac1602083018961252a565b8181036040830152612ad3818861243a565b90508181036060830152612ae7818761243a565b90508181036080830152612afb818661243a565b9050612b0a60a0830185612759565b612b1760c08301846123b0565b98975050505050505050565b60008060408385031215612b3a57612b39612315565b5b6000612b488582860161256b565b9250506020612b598582860161256b565b9150509250929050565b7f4e487b7100000000000000000000000000000000000000000000000000000000600052602260045260246000fd5b60006002820490506001821680612baa57607f821691505b60208210811415612bbe57612bbd612b63565b5b50919050565b7f4552433732313a20617070726f76616c20746f2063757272656e74206f776e6560008201527f7200000000000000000000000000000000000000000000000000000000000000602082015250565b6000612c206021836123e5565b9150612c2b82612bc4565b604082019050919050565b60006020820190508181036000830152612c4f81612c13565b9050919050565b7f4552433732313a20617070726f76652063616c6c6572206973206e6f7420746f60008201527f6b656e206f776e6572206f7220617070726f76656420666f7220616c6c000000602082015250565b6000612cb2603d836123e5565b9150612cbd82612c56565b604082019050919050565b60006020820190508181036000830152612ce181612ca5565b9050919050565b7f4552433732313a2063616c6c6572206973206e6f7420746f6b656e206f776e6560008201527f72206f7220617070726f76656400000000000000000000000000000000000000602082015250565b6000612d44602d836123e5565b9150612d4f82612ce8565b604082019050919050565b60006020820190508181036000830152612d7381612d37565b9050919050565b7f4f6e6c7920746865206f776e65722063616e206275726e2074686520436f6e7460008201527f7261637400000000000000000000000000000000000000000000000000000000602082015250565b6000612dd66024836123e5565b9150612de182612d7a565b604082019050919050565b60006020820190508181036000830152612e0581612dc9565b9050919050565b7f4552433732313a20696e76616c696420746f6b656e2049440000000000000000600082015250565b6000612e426018836123e5565b9150612e4d82612e0c565b602082019050919050565b60006020820190508181036000830152612e7181612e35565b9050919050565b7f4552433732313a2061646472657373207a65726f206973206e6f74206120766160008201527f6c6964206f776e65720000000000000000000000000000000000000000000000602082015250565b6000612ed46029836123e5565b9150612edf82612e78565b604082019050919050565b60006020820190508181036000830152612f0381612ec7565b9050919050565b7f4f776e61626c653a206e6577206f776e657220697320746865207a65726f206160008201527f6464726573730000000000000000000000000000000000000000000000000000602082015250565b6000612f666026836123e5565b9150612f7182612f0a565b604082019050919050565b60006020820190508181036000830152612f9581612f59565b9050919050565b7f4552433732313a207472616e736665722066726f6d20696e636f72726563742060008201527f6f776e6572000000000000000000000000000000000000000000000000000000602082015250565b6000612ff86025836123e5565b915061300382612f9c565b604082019050919050565b6000602082019050818103600083015261302781612feb565b9050919050565b7f4552433732313a207472616e7366657220746f20746865207a65726f2061646460008201527f7265737300000000000000000000000000000000000000000000000000000000602082015250565b600061308a6024836123e5565b91506130958261302e565b604082019050919050565b600060208201905081810360008301526130b98161307d565b9050919050565b7f4f776e61626c653a2063616c6c6572206973206e6f7420746865206f776e6572600082015250565b60006130f66020836123e5565b9150613101826130c0565b602082019050919050565b60006020820190508181036000830152613125816130e9565b9050919050565b7f4552433732313a20617070726f766520746f2063616c6c657200000000000000600082015250565b60006131626019836123e5565b915061316d8261312c565b602082019050919050565b6000602082019050818103600083015261319181613155565b9050919050565b7f4552433732313a207472616e7366657220746f206e6f6e20455243373231526560008201527f63656976657220696d706c656d656e7465720000000000000000000000000000602082015250565b60006131f46032836123e5565b91506131ff82613198565b604082019050919050565b60006020820190508181036000830152613223816131e7565b9050919050565b7f43616e6e6f74207472616e736665722074686973204173736574000000000000600082015250565b6000613260601a836123e5565b915061326b8261322a565b602082019050919050565b6000602082019050818103600083015261328f81613253565b9050919050565b600081519050919050565b600082825260208201905092915050565b60006132bd82613296565b6132c781856132a1565b93506132d78185602086016123f6565b6132e081612429565b840191505092915050565b6000608082019050613300600083018761252a565b61330d602083018661252a565b61331a6040830185612759565b818103606083015261332c81846132b2565b905095945050505050565b6000815190506133468161234b565b92915050565b60006020828403121561336257613361612315565b5b600061337084828501613337565b91505092915050565b7f4552433732313a206d696e7420746f20746865207a65726f2061646472657373600082015250565b60006133af6020836123e5565b91506133ba82613379565b602082019050919050565b600060208201905081810360008301526133de816133a2565b9050919050565b7f4552433732313a20746f6b656e20616c7265616479206d696e74656400000000600082015250565b600061341b601c836123e5565b9150613426826133e5565b602082019050919050565b6000602082019050818103600083015261344a8161340e565b905091905056fea2646970667358221220e194980ce8a36a997a4964100843ae0675916916ae2866b564a6d47b34b6f30c64736f6c63430008090033",
  "linkReferences": {},
  "deployedLinkReferences": {}
}